{
  "contractName": "TSquareToken",
  "abi": [
    {
      "constant": true,
      "inputs": [],
      "name": "totalSupply",
      "outputs": [
        {
          "name": "",
          "type": "uint256"
        }
      ],
      "payable": false,
      "stateMutability": "view",
      "type": "function",
      "signature": "0x18160ddd"
    },
    {
      "inputs": [],
      "payable": false,
      "stateMutability": "nonpayable",
      "type": "constructor",
      "signature": "constructor"
    }
  ],
  "bytecode": "0x608060405234801561001057600080fd5b50620f4240600081905550609e806100296000396000f3fe608060405260043610603f576000357c0100000000000000000000000000000000000000000000000000000000900463ffffffff16806318160ddd146044575b600080fd5b348015604f57600080fd5b506056606c565b6040518082815260200191505060405180910390f35b6000548156fea165627a7a723058208957c35da4a0be34ec58e7669d61b2677d120ecb3214d7630fa1db94bca4e8780029",
  "source": "pragma solidity ^0.5.0;\r\n\r\n\r\ncontract TSquareToken {\r\n\r\n    uint256 public totalSupply;\r\n\r\n    constructor () public {\r\n        totalSupply = 1000000;\r\n    }\r\n\r\n}",
  "sourcePath": "C:/Users/User/Desktop/token_sale/contracts/tSquareToken.sol",
  "compiler": {
    "name": "solc",
    "version": "0.5.0+commit.1d4f565a.Emscripten.clang"
  },
  "schemaVersion": "3.0.6",
  "updatedAt": "2019-04-30T23:22:52.554Z",
  "devdoc": {
    "methods": {}
  },
  "userdoc": {
    "methods": {}
  }
}